:020000040000FA
:08000000803102288731EF2F47
:100F7C0051019101930192010800400112111415C5
:100F8C007E014F150800FE0012001E00FE0BCA2F3A
:100F9C000034E7340334EE340234F43401340A34CC
:100FAC0000348731C32787318731BE278731400111
:100FBC0018150230FB004530FA00AA30890BE42FDB
:100FCC00FA0BE42FFB0BE42F40011811DD2F8031BD
:100FDC000228CF30840087308500703086000030C6
:100FEC00870008308731C9278731F801F9014001A2
:040FFC008731D72F33
:020000040001F9
:04000E00ED3FE73F9C
:04001400FF3FFF3F6C
:00000001FF
