:020000040000FA
:08000000803102288731EF2F47
:100F600051019101930192010800FE0012001E0040
:100F7000FE0BB62F0034E7340334EE340234F4347D
:100F800001340A3400348731D52787318731B027BF
:100F90008731400118150E1DCE2FCF2FD12F1811DC
:100FA000CB2F1815CB2F80310228400198019901D1
:100FB0009A013B309200F0309300FF3094007E01A4
:100FC000CE01C301B801C4010430B9000430CF0020
:100FD0004001121114157E014F15B8140800BB30E2
:100FE000840087308500703086000030870008302C
:100FF0008731B5278731F801F90140018731C32FC7
:020000040001F9
:04000E00ED3FE73F9C
:04001400FF3FFF3F6C
:00000001FF
