:020000040000FA
:08000000803102288731F12F45
:100ECE0051019101930192010800FE0012001E00D3
:100EDE00FE0B6D2F00349030460196003E3095008B
:100EEE00403094000800E7340334EE340234F43416
:100EFE0001340A3400340130450190008F01910114
:100F0E00F9308D008C014E010D13803045018E009D
:100F1E0008007908FB007808FA00FB36FA0CFB365D
:100F2E00FA0C7A084601950078080339FA00053064
:100F3E00FA35FF3E031D9F2F7A3594000800873146
:100F4E00C3278731873167278731873182278731DA
:100F5E008731722787310A30F8000030F900873167
:100F6E00902787310430FC003E30890BBC2FFC0BE0
:100F7E00BC2FB22F803102284001980199019A01AD
:100F8E003B309200F0309300FF309400FB307E0136
:100F9E00CE00F030C3003330B800C4010430B900C5
:100FAE000430CF00BA01C501D0013730BB00F0309C
:100FBE00C600FF30D1003F30BC00F030C700FF301C
:100FCE00D2004001121114157E014F15B8140330D2
:100FDE00920008007A3084008730850070308600D9
:100FEE0000308700083087316C2787314001873108
:020FFE00A62F1C
:020000040001F9
:04000E00ED3FE73F9C
:04001400FF3FFF3F6C
:00000001FF
